S01B0000436172506C61736D6153746572696C697A65722E7372656368
S113000010C028C0B5C026C0C7C024C023C022C0A9
S113001021C020C01FC0B6C01DC01CC01BC01AC058
S113002019C011241FBECFEDCDBF10E0A0E6B0E093
S1130030EAEBF1E002C005900D92A436B107D9F7BE
S113004010E0A4E6B0E001C01D92AA36B107E1F7C2
S1130050ADD0B1C0D5CFF89485E087BB18BA86EE91
S11300608ABB1BBA88E081B993E097B986E886B960
S113007013B890BF82E083BF80916400806880934E
S11300806400789408958091640087FF1EC0369AB6
S1130090349BFECF349A84B185B1B19B0AC082E00F
S11300A080936500DA9A809164008068809364008C
S11300B0089510926500DA988091640080688093B6
S11300C064001092690010926800089580916400A1
S11300D080618093640080916400806880936400F0
S11300E080916400806280936400C09AC29AD99A15
S11300F080E197E229E130E0F9013197F1F70197C6
S1130100D9F7DD9A80E197E229E130E0F9013197EE
S1130110F1F70197D9F7DE9ADF9A08958091640088
S113012084FF25C0809166009091670001969093AA
S11301306700809366002091620030916300809193
S11301406600909167002817390709F4DF98209119
S113015060003091610080916600909167002817DB
S1130160390729F4DF9A1092670010926600089507
S11301701F920F920FB60F9211240F900FBE0F9083
S11301801F9018951F920F920FB60F9211240F9083
S11301900FBE0F901F9018951F920F920FB60F92DB
S11301A011240F900FBE0F901F90189554DF8EDF0F
S10D01B06ADFB4DFFDCFF894FFCF3F
S10701BA803E64001B
S9030000FC
